{
  "contractName": "Faucet",
  "abi": [
    {
      "inputs": [],
      "stateMutability": "nonpayable",
      "type": "constructor"
    },
    {
      "inputs": [],
      "name": "numOfFunders",
      "outputs": [
        {
          "internalType": "uint256",
          "name": "",
          "type": "uint256"
        }
      ],
      "stateMutability": "view",
      "type": "function"
    },
    {
      "inputs": [],
      "name": "owner",
      "outputs": [
        {
          "internalType": "address",
          "name": "",
          "type": "address"
        }
      ],
      "stateMutability": "view",
      "type": "function"
    },
    {
      "inputs": [],
      "name": "test5",
      "outputs": [
        {
          "internalType": "uint256",
          "name": "",
          "type": "uint256"
        }
      ],
      "stateMutability": "pure",
      "type": "function"
    },
    {
      "inputs": [],
      "name": "testNum",
      "outputs": [
        {
          "internalType": "uint256",
          "name": "",
          "type": "uint256"
        }
      ],
      "stateMutability": "view",
      "type": "function"
    },
    {
      "stateMutability": "payable",
      "type": "receive"
    },
    {
      "inputs": [],
      "name": "emitLog",
      "outputs": [
        {
          "internalType": "bytes32",
          "name": "",
          "type": "bytes32"
        }
      ],
      "stateMutability": "pure",
      "type": "function"
    },
    {
      "inputs": [
        {
          "internalType": "address",
          "name": "newOwner",
          "type": "address"
        }
      ],
      "name": "transferOwnership",
      "outputs": [],
      "stateMutability": "nonpayable",
      "type": "function"
    },
    {
      "inputs": [],
      "name": "addFunds",
      "outputs": [],
      "stateMutability": "payable",
      "type": "function"
    },
    {
      "inputs": [],
      "name": "admin1",
      "outputs": [],
      "stateMutability": "nonpayable",
      "type": "function"
    },
    {
      "inputs": [],
      "name": "admin2",
      "outputs": [],
      "stateMutability": "nonpayable",
      "type": "function"
    },
    {
      "inputs": [
        {
          "internalType": "uint256",
          "name": "amount",
          "type": "uint256"
        }
      ],
      "name": "withdraw",
      "outputs": [],
      "stateMutability": "nonpayable",
      "type": "function"
    },
    {
      "inputs": [],
      "name": "getAllFunders",
      "outputs": [
        {
          "internalType": "address[]",
          "name": "",
          "type": "address[]"
        }
      ],
      "stateMutability": "view",
      "type": "function"
    },
    {
      "inputs": [
        {
          "internalType": "uint8",
          "name": "index",
          "type": "uint8"
        }
      ],
      "name": "getFunderAtIndex",
      "outputs": [
        {
          "internalType": "address",
          "name": "",
          "type": "address"
        }
      ],
      "stateMutability": "view",
      "type": "function"
    }
  ],
  "bytecode": "0x608060405234801561001057600080fd5b50336000806101000a81548173ffffffffffffffffffffffffffffffffffffffff021916908373ffffffffffffffffffffffffffffffffffffffff1602179055506103e8600181905550336000806101000a81548173ffffffffffffffffffffffffffffffffffffffff021916908373ffffffffffffffffffffffffffffffffffffffff160217905550610d11806100a96000396000f3fe6080604052600436106100ab5760003560e01c80638da5cb5b116100645780638da5cb5b146101a1578063a26759cb146101cc578063ae28f1ed146101d6578063af7f2c9b14610201578063f2fde38b1461022c578063f42c13bf14610255576100b2565b806306a8f8a2146100b75780630a93cf33146100ce578063115976c41461010b5780631ad7be82146101225780632e1a7d4d1461014d5780636fbbb55d14610176576100b2565b366100b257005b600080fd5b3480156100c357600080fd5b506100cc610280565b005b3480156100da57600080fd5b506100f560048036038101906100f09190610825565b610310565b6040516101029190610893565b60405180910390f35b34801561011757600080fd5b50610120610350565b005b34801561012e57600080fd5b506101376103e0565b60405161014491906108c7565b60405180910390f35b34801561015957600080fd5b50610174600480360381019061016f919061090e565b6103f2565b005b34801561018257600080fd5b5061018b610489565b60405161019891906109f9565b60405180910390f35b3480156101ad57600080fd5b506101b661058c565b6040516101c39190610893565b60405180910390f35b6101d46105b0565b005b3480156101e257600080fd5b506101eb6106d9565b6040516101f891906108c7565b60405180910390f35b34801561020d57600080fd5b506102166106df565b60405161022391906108c7565b60405180910390f35b34801561023857600080fd5b50610253600480360381019061024e9190610a47565b6106e5565b005b34801561026157600080fd5b5061026a6107b6565b6040516102779190610a8d565b60405180910390f35b60008054906101000a900473ffffffffffffffffffffffffffffffffffffffff1673ffffffffffffffffffffffffffffffffffffffff163373ffffffffffffffffffffffffffffffffffffffff161461030e576040517f08c379a000000000000000000000000000000000000000000000000000000000815260040161030590610b2b565b60405180910390fd5b565b6000600460008360ff16815260200190815260200160002060009054906101000a900473ffffffffffffffffffffffffffffffffffffffff169050919050565b60008054906101000a900473ffffffffffffffffffffffffffffffffffffffff1673ffffffffffffffffffffffffffffffffffffffff163373ffffffffffffffffffffffffffffffffffffffff16146103de576040517f08c379a00000000000000000000000000000000000000000000000000000000081526004016103d590610b2b565b60405180910390fd5b565b60006103ea6107de565b50600a905090565b80670de0b6b3a764000081111561043e576040517f08c379a000000000000000000000000000000000000000000000000000000000815260040161043590610bbd565b60405180910390fd5b3373ffffffffffffffffffffffffffffffffffffffff166108fc839081150290604051600060405180830381858888f19350505050158015610484573d6000803e3d6000fd5b505050565b6060600060025467ffffffffffffffff8111156104a9576104a8610bdd565b5b6040519080825280602002602001820160405280156104d75781602001602082028036833780820191505090505b50905060005b6002548160ff16101561058457600460008260ff16815260200190815260200160002060009054906101000a900473ffffffffffffffffffffffffffffffffffffffff16828260ff168151811061053757610536610c0c565b5b602002602001019073ffffffffffffffffffffffffffffffffffffffff16908173ffffffffffffffffffffffffffffffffffffffff1681525050808061057c90610c6a565b9150506104dd565b508091505090565b60008054906101000a900473ffffffffffffffffffffffffffffffffffffffff1681565b60003390506105bd6107de565b50600360008273ffffffffffffffffffffffffffffffffffffffff1673ffffffffffffffffffffffffffffffffffffffff16815260200190815260200160002060009054906101000a900460ff166106d65760006002600081548092919061062490610c93565b9190505590506001600360008473ffffffffffffffffffffffffffffffffffffffff1673ffffffffffffffffffffffffffffffffffffffff16815260200190815260200160002060006101000a81548160ff021916908315150217905550816004600083815260200190815260200160002060006101000a81548173ffffffffffffffffffffffffffffffffffffffff021916908373ffffffffffffffffffffffffffffffffffffffff160217905550505b50565b60015481565b60025481565b60008054906101000a900473ffffffffffffffffffffffffffffffffffffffff1673ffffffffffffffffffffffffffffffffffffffff163373ffffffffffffffffffffffffffffffffffffffff1614610773576040517f08c379a000000000000000000000000000000000000000000000000000000000815260040161076a90610b2b565b60405180910390fd5b806000806101000a81548173ffffffffffffffffffffffffffffffffffffffff021916908373ffffffffffffffffffffffffffffffffffffffff16021790555050565b60007f48656c6c6f2c20576f726c642100000000000000000000000000000000000000905090565b60006064905090565b600080fd5b600060ff82169050919050565b610802816107ec565b811461080d57600080fd5b50565b60008135905061081f816107f9565b92915050565b60006020828403121561083b5761083a6107e7565b5b600061084984828501610810565b91505092915050565b600073ffffffffffffffffffffffffffffffffffffffff82169050919050565b600061087d82610852565b9050919050565b61088d81610872565b82525050565b60006020820190506108a86000830184610884565b92915050565b6000819050919050565b6108c1816108ae565b82525050565b60006020820190506108dc60008301846108b8565b92915050565b6108eb816108ae565b81146108f657600080fd5b50565b600081359050610908816108e2565b92915050565b600060208284031215610924576109236107e7565b5b6000610932848285016108f9565b91505092915050565b600081519050919050565b600082825260208201905092915050565b6000819050602082019050919050565b61097081610872565b82525050565b60006109828383610967565b60208301905092915050565b6000602082019050919050565b60006109a68261093b565b6109b08185610946565b93506109bb83610957565b8060005b838110156109ec5781516109d38882610976565b97506109de8361098e565b9250506001810190506109bf565b5085935050505092915050565b60006020820190508181036000830152610a13818461099b565b905092915050565b610a2481610872565b8114610a2f57600080fd5b50565b600081359050610a4181610a1b565b92915050565b600060208284031215610a5d57610a5c6107e7565b5b6000610a6b84828501610a32565b91505092915050565b6000819050919050565b610a8781610a74565b82525050565b6000602082019050610aa26000830184610a7e565b92915050565b600082825260208201905092915050565b7f4f6e6c79206f776e65722063616e2063616c6c20746869732066756e6374696f60008201527f6e00000000000000000000000000000000000000000000000000000000000000602082015250565b6000610b15602183610aa8565b9150610b2082610ab9565b604082019050919050565b60006020820190508181036000830152610b4481610b08565b9050919050565b7f43616e6e6f74207769746864726177206d6f7265207468616e2031206574686560008201527f7200000000000000000000000000000000000000000000000000000000000000602082015250565b6000610ba7602183610aa8565b9150610bb282610b4b565b604082019050919050565b60006020820190508181036000830152610bd681610b9a565b9050919050565b7f4e487b7100000000000000000000000000000000000000000000000000000000600052604160045260246000fd5b7f4e487b7100000000000000000000000000000000000000000000000000000000600052603260045260246000fd5b7f4e487b7100000000000000000000000000000000000000000000000000000000600052601160045260246000fd5b6000610c75826107ec565b915060ff8203610c8857610c87610c3b565b5b600182019050919050565b6000610c9e826108ae565b91507fffffffffffffffffffffffffffffffffffffffffffffffffffffffffffffffff8203610cd057610ccf610c3b565b5b60018201905091905056fea26469706673582212203bac618ffd9679d9594af8b28ccd2f9f368cf94ea832bdff4af1474f4653fa9964736f6c634300080e0033",
  "immutableReferences": {},
  "source": "// SPDX-License-Identifier: MIT\npragma solidity >=0.4.22 <0.9.0;\n\nimport \"./Owned.sol\";\nimport \"./Logger.sol\";\nimport \"./IFaucet.sol\";\n\ncontract Faucet is Owned, Logger, IFaucet {\n\n    uint public numOfFunders;\n\n    mapping(address => bool) private funders;\n    mapping(uint => address) private lutFunders;\n\n    modifier limitWithdraw(uint withdrawAmount) {\n        require(\n            withdrawAmount <= 1000000000000000000,\n            \"Cannot withdraw more than 1 ether\"\n        );\n        _; // function body is executed next\n    }\n\n    function emitLog() public pure override returns(bytes32) {\n        return \"Hello, World!\"; \n    }\n\n    constructor() {\n        owner = msg.sender;\n    }\n\n    receive() external payable {}\n\n    function transferOwnership(address newOwner) external onlyOwner {\n        owner = newOwner;\n    }\n\n    function addFunds() external override payable {\n        address funder = msg.sender;\n        test3();\n\n        if (!funders[funder]) {\n            uint index = numOfFunders++;\n            funders[funder] = true;\n            lutFunders[index] = funder;\n        }\n    }\n\n    function admin1() external onlyOwner {\n        // some managing stuff that only admin should have access to\n    }\n\n    function admin2() external onlyOwner {\n        // some managing stuff that only admin should have access to\n    }\n\n    function withdraw(uint amount) override external limitWithdraw(amount) {\n        payable(msg.sender).transfer(amount);\n    }\n\n    function getAllFunders() external view returns (address[] memory) {\n        address[] memory _funders = new address[](numOfFunders);\n        for (uint8 n = 0; n < numOfFunders; n++) {\n            _funders[n] = lutFunders[n];\n        }\n        return _funders;\n    }\n\n    function getFunderAtIndex(uint8 index) external view returns (address) {\n        return lutFunders[index];\n    }\n\n    // const instance = await Faucet.deployed()\n    \n    // instance.addFunds({value: \"2000000000000000000\", from: accounts[0]})\n    // instance.addFunds({value: \"2000000000000000000\", from: accounts[1]})\n\n    // instance.getAllFunders()\n    // instance.getFunderAtIndex(0)\n\n    // instance.withdraw(\"500000000000000000\", {from: accounts[1]})\n}",
  "sourcePath": "/Users/ameyap/blockchain/faucet/contracts/Faucet.sol",
  "compiler": {
    "name": "solc",
    "version": "0.8.14+commit.80d49f37.Emscripten.clang"
  },
  "schemaVersion": "3.4.7",
  "updatedAt": "2022-07-06T05:48:41.740Z",
  "devdoc": {
    "kind": "dev",
    "methods": {},
    "version": 1
  },
  "userdoc": {
    "kind": "user",
    "methods": {},
    "version": 1
  }
}